:020000040800F2
:1000000000300020417E0008D9660008DB66000849
:10001000DD660008DF660008E166000800000000F9
:10002000000000000000000000000000E36600087F
:10003000E566000800000000E7660008E9660008C1
:10004000917E0008917E0008917E0008917E000854
:10005000917E0008917E0008917E0008917E000844
:10006000917E0008917E0008917E0008917E000834
:10007000917E0008917E0008917E0008917E000824
:10008000917E0008917E0008917E0008917E000814
:10009000917E0008917E0008917E0008917E000804
:1000A000917E0008917E0008917E0008917E0008F4
:1000B000917E0008917E000800000000917E0008FB
:1000C000917E00080000000000000000917E000802
:1000D00000000000917E0008F1660008917E000893
:1000E000917E0008917E00080000000000000000E2
:1000F0000000000000000000000000000000000000
:1001000000000000000000000000000000000000EF
:100110000000000000000000917E0008917E0008B1
:1001200000000000000000000000000000000000CF
:1001300000000000000000000000000000000000BF
:10014000917E0008917E0008000000000000000081
:10015000000000000000000000000000000000009F
:10016000000000000000000000000000000000008F
:10017000000000000000000000000000000000007F
:0801800000000000917E000860
:1001C0000348044B834202D0034B03B118477047E6
:1001D000E8010020E8010020000000000548064971
:1001E0000B1AD90F01EBA301491002D0034B03B145
:1001F00018477047E8010020E801002000000000D7
:1002000010B5064C237843B9FFF7DAFF044B13B15E
:100210000448AFF300800123237010BDE8010020E3
:1002200000000000947E000808B5044B1BB104498F
:100230000448AFF30080BDE80840CFE700000000AD
:10024000EC010020947E000803685A004CBF43F084
:10025000004323F000431844704700BF2DE9F843E2
:1002600029B34F1E044615463E464FF0000808EBE2
:10027000060101EBD171491004EBC1094846FFF7B3
:10028000E3FF0346C80008308F42204409D0AB4248
:1002900009D8FFF7D9FF0138A8420AD201F10108B5
:1002A000E5E7AB4205D9884501D04E1EDFE74FF0A8
:1002B00000094846BDE8F883012807D0022807D086
:1002C000044B00280CBF18460020704702487047B6
:1002D000024870479109000895090008990900082B
:1002E00030B5234B83B004468D1E3BB301A928468D
:1002F000AFF30080E8B101992A46FFF7AFFF01464E
:10030000B8B1FFF7A1FF4B68A064012B2CD0002BE4
:1003100001F1040024DBFFF797FF0023C4E9130376
:100320000368002B11DBFFF78FFF2061002003B073
:1003300030BD00230920236103B030BD0D4B0E49B1
:10034000C91AC91018460191D6E7C3F30360FFF735
:10035000B3FF0028206114BF0020092003B030BD86
:100360000123C4E91303DBE7002323610520DEE753
:10037000000000000C830008F48300080368DA071B
:1003800010B5044606D49B0700F1480009D500F0DB
:100390005BFC2368590709D51A070ED5DB0613D570
:1003A00010BD00F049FC23685907F5D404F1D000D2
:1003B00000F052FC23681A07F0D404F5A87000F08E
:1003C00053FC2368DB06EBD404F5E870BDE810406D
:1003D00000F08EBC092070470346006800B1184445
:1003E000704700BF704700BF70B504460E46316CC1
:1003F0002046FFF775FF054688B9326C62612369B4
:1004000032462146012098470828F0D0072806D117
:100410002846316CFFF7E6FF301D00F001FC01F0CB
:1004200081FB00BF2DE9F0470D1DD0F80C80D0F8FE
:100430001890074614460FCDADF5727D0DF10C0CEA
:10044000ACE80F000FCDACE80F000FCDACE80F000B
:1004500095E80F0002AE4FF0000E8CE80F00C6F8D2
:1004600000E020E0336C7B614FF4F07231467AA8F3
:1004700001F0EAFC3B697AAA394650469847889BC6
:1004800073642146CDE9006905463B463A460120A2
:10049000C0470446E0B94FF4F0727AA9304601F043
:1004A000D3FC082D1AD1316C3846FFF719FF0934F7
:1004B0005FFA84FA05460028D4D0B36B73643A46D9
:1004C000CDE900693B464AF010010120C04700B168
:1004D000092528460DF5727DBDE8F087072DF7D177
:1004E0002046316CFFF77EFF03A800F099FB00BFA8
:1004F000406C7047F0B5CB6B0B6401F1040C0E46F9
:100500000546BCE80F00F9B001AC0FC4BCE80F0011
:100510000FC4BCE80F000FC49CE80F004FF0FF377A
:1005200084E80F00009706E02B696A462946984741
:100530000828044608D110992846FFF7D1FE002864
:10054000F2D0092079B0F0BD6846FFF717FF062CFE
:10055000F7D131462846FFF747FF00BFC160D96B8E
:1005600082611964002219465CE700BF70B5C66855
:1005700043690B64AEB903690A4604460D46014659
:1005800002209847072805D008280FD12946204681
:10059000FFF72AFF3046296CFFF724FF281D00F0E3
:1005A0003FFB0122FFF73EFF01F0BCFA01F0BAFA6F
:1005B000C2681AB1CA6B0A64002233E79AE700BF27
:1005C000704700BF836801460BB101201847704790
:1005D000012912D009D873B90F2A0CD800EB820276
:1005E00018465368009A136070470339012994BF75
:1005F000012002207047022070470846704700BF64
:1006000000B585B00A46002303A900911946FFF7FB
:10061000DFFF039805B05DF804FB00BF012912D08D
:1006200009D873B90F2A0CD800EB8200009A12681F
:100630004260184670470339012994BF0120022007
:100640007047022070470846704700BF10B584B05D
:10065000002303AC039200940A461946FFF7DEFF1D
:1006600004B010BD70B5D36B136402F1040C0546E1
:100670000C46BCE80F00ADF50E7D0DF15C0EAEE84A
:100680000F00BCE80F00AEE80F00BCE80F00AEE8BA
:100690000F009CE80F004FF0FF368EE80F00169613
:1006A00010E0FFF7D3FF214616A8A847034616AA75
:1006B0006946082083B9049B9847052806460CD054
:1006C000092809D026996846FFF70AFE03466A46BC
:1006D0000C2116A8002BE4D0092616A8FFF74EFE21
:1006E00030460DF50E7D70BD2DE9F04FCC6C89B014
:1006F0001E4654F8043B06940D46174600F00308C6
:10070000002E79D01A0C1B0405938DF81D200223AE
:10071000D2B204EB82048DF81C302B6DB8F1020FBD
:1007200008BFAC6B13F001030CD005A9384600F0EC
:1007300079FB18B9082009B0BDE8F08F092009B08D
:10074000BDE8F08FD4F800A0BAF1000FEDD001930E
:1007500000F008030293022E4AD0B4F800A0B4F8C7
:1007600002900434AB6C29F0010B0F2138469B44F6
:10077000FFF746FF834539D82AF001039B448345A0
:1007800094BF002001204FEA490303F002030AF05E
:10079000010A43EA0A03012B49D0022B32D0002B75
:1007A000CCD1B8F1000F02D0002840F0CD80043445
:1007B000D4F800A0BAF1000FCDD105A9384600F059
:1007C00031FB0028BAD1019B002BB3D00F21384652
:1007D000FFF716FF0E2102463846FFF737FF38466F
:1007E0006A4A0F21FFF732FF0720A8E70020CAE777
:1007F000D4F804900834B5E71B0205930323ADF841
:100800001C308AE7236823F0004BB8F1000F45D174
:1008100028B1029A002A5CD0BBF1000F74D0002BE3
:1008200000DA04340BF1010B04EB8B04C0E7B8F1E0
:10083000000F19D1B0B163682268991C4FEAD272D7
:100840003FF47CAF05F158010133049100F0908032
:10085000201DFFF7C1FD04AB01462846AFF3008021
:1008600000285BD10834A3E70D213846D5F8209045
:10087000FFF7C6FE8145F5D1AB6A9C42F2D1204616
:10088000FFF7E2FC0F2102463846FFF7DFFE38464D
:100890002A460021FFF7DAFE072050E70D213846EF
:1008A000D5F82090FFF7ACFE814501D02368B6E76C
:1008B000AB6A9C42FAD104230022C5E90B23E3185A
:1008C000C5F828B06B632368002B59DB0123019323
:1008D000A8E705F15803CDF80C8004F1040AB046EE
:1008E00091461E460EE050460496FFF775FD002225
:1008F000014604AB284609F101090AF1040AAFF3E5
:100900000080E0B9D945EED10D213846FFF778FED9
:10091000049BAC62C5E90803062010E781460D215F
:100920003846FFF76DFEB9F1020F286225D12B463C
:10093000049A43F82C2F6B62AC620620FFE6464611
:100940002368DDF80C806AE72046FFF77DFC04345D
:100950000246AC6328461446AFF3008000283FF4FB
:10096000EDAE384622460F21FFF770FE0720E6E67F
:100970000D213846FFF744FE2862049B6B62DBE7DB
:100980000BF1010004EB80007AE700BF00000000DB
:100990000023A9E60123A7E60223A5E62DE9F043FB
:1009A0000646C3B015461C46042900F2BF80DFE8A6
:1009B00001F09E57BD2D0300002C40F0B780102A97
:1009C00000F2B4800368D80600F1F98020AF384601
:1009D00000F098F9B46B394600234FF0010C0CFA83
:1009E00003F22A42204603F1010303D050F8042BFE
:1009F0000A600446042B01F10401F0D13846B463C7
:100A000000F076F9002043B0BDE8F083032C40F0FD
:100A10008D8094B204EB1243102B4FEA124500F282
:100A2000858003681F0700F1D28020AF384600F0B0
:100A30003DF9B26B07EBC50154B10B46D01A01EB7F
:100A4000C401E4001D5843F8045B8B42FAD12244F0
:100A50003846B26300F008F9002043B0BDE8F083E7
:100A6000012C4FEA124895B25CD0052C5ED108EB00
:100A70000509B9F1200F59D8B8F10F0F79D9A94656
:100A8000002D40F08A80B36B6DB320AF4FF00009AA
:100A900007EBC807043F03EBC50553F8041B47F8F1
:100AA000041FAB42F9D1B9F1000F0FD06F46414698
:100AB000102938BF102107EBC101843903EBC905A8
:100AC00053F8040B41F8040FAB42F9D1012C00F0AC
:100AD0008680B8F10F0FB56347D9B9F1000F02D086
:100AE000684600F0B9F8002043B0BDE8F083ECB9E7
:100AF000806B23461FFA82FC0124371D04FA03F29F
:100B000012EA0C0F014604D051F8042B47F82320B9
:100B100008460133102BF1D115F40055E3D1B06331
:100B2000284604E008EB0503102B03D9022043B04C
:100B3000BDE8F083B8F10F0FF8D83368DA0706D5AF
:100B4000304623F0030340F8483B00F079F820AF2B
:100B5000384600F075F8B36B002D97D11D4604356B
:100B6000B563384600F068F8BDE720A800F06CF8DF
:100B7000B3E7B9F1100F40D9A9F110093368D907CB
:100B800008D523F00103304643F0020340F8483B08
:100B900000F05EF8B9F1000F32D033685A0720D464
:100BA000B8F10F0F25D96F463846C8F1100500F08F
:100BB00057F8002DB36B7FF77AAF20AF68E723F0CB
:100BC0001003336006F5E87000F09CF8FEE623F0B1
:100BD0000803036000F5A87000F068F825E720AF6F
:100BE000BDE7304623F0040340F8D03B00F038F86E
:100BF000D6E720A800F02CF8D5E74FF00009BDE7B4
:100C0000B8F10F0F3FF63FAF20AF384600F020F8A5
:100C1000B36B002D7FF43AAF384600F015F862E769
:100C200000F1340191E838009C46A6464CF8045D7A
:100C300090E8FF0FE54600BD90EC210B704700BF28
:100C400080EC210B704700BF90EC200B704700BF79
:100C500080EC200B704700BFD0EC200B704700BF2A
:100C6000C0EC200B704700BFF0EC0201F0EC021169
:100C7000F0EC0221F0EC0231F0EC0241F0EC025118
:100C8000F0EC0261F0EC0271F0EC0281F0EC029108
:100C9000F0EC02A1F0EC02B1F0EC02C1F0EC02D1F8
:100CA000F0EC02E1F0EC02F1704700BFE0EC020171
:100CB000E0EC0211E0EC0221E0EC0231E0EC024158
:100CC000E0EC0251E0EC0261E0EC0271E0EC028148
:100CD000E0EC0291E0EC02A1E0EC02B1E0EC02C138
:100CE000E0EC02D1E0EC02E1E0EC02F1704700BF81
:100CF000B0FC0181B0FC0191B0FC01A1B0FC01B1DC
:100D0000704700BFA0FC0181A0FC0191A0FC01A1E3
:100D1000A0FC01B1704700BFEC4600B52DE90050C2
:100D20002DE9FF1F4FF000032DE90C0001A9FFF78B
:100D3000E1FBDDF840E012B0704700BFEC4600B5C3
:100D40002DE900502DE9FF1F4FF000032DE90C00A5
:100D500001A9FFF70BFCDDF840E012B0704700BFBF
:100D6000EC4600B52DE900502DE9FF1F4FF00003C0
:100D70002DE90C0001A9FFF71BFCDDF840E012B0E3
:100D8000704700BFEC4600B52DE900502DE9FF1F6C
:100D90004FF000032DE90C0001ABFFF7DFFBDDF89E
:100DA00040E012B0704700BFEC4600B52DE900509E
:100DB0002DE9FF1F4FF000032DE90C0001AAFFF7FA
:100DC00051FCDDF840E012B0704700BF027A0346E4
:100DD0007AB9427AA2B14168013A10B44272086805
:100DE00003220C1D1A7202025C60000E10BC1A6015
:100DF00070470068013A1A7202021A60000E7047CA
:100E0000B020704700B585B0002303AA00921946B0
:100E10000C22FFF7DDFB039805B05DF804FB00BF73
:100E2000F0E700BF2DE9F043054685B00E464FF0D0
:100E300000083046FFF7CAFFB028044600F0BA8029
:100E4000070620D500F0F003802B4DD0902B36D034
:100E5000A02B60D0B02B74D0C02B00F08B8000F0A2
:100E6000F803D02B0BD100F007020132052342F426
:100E7000002201212846FFF791FD0028D9D0092042
:100E800005B0BDE8F0838300DBB21F1D0DF10C0936
:100E900000231946CDF800900D222846FFF798FB55
:100EA000039BCDF8009060064CBFDF1BFF180023AA
:100EB0000D22194628460397FFF7B0FBB9E700F06B
:100EC0000D030D2BDBD003AF002300F00F021946FA
:100ED00000972846FFF77CFB002300970D22194658
:100EE0002846FFF79BFBA4E73046FFF76FFF24027D
:100EF0002043B0F5004FC2D004010023A2B219462E
:100F00002846FFF74BFD0028B9D114F4004F18BF55
:100F10004FF001088DE7C24302F007034FF47F62F0
:100F20001A41010702F47F624FF0000348BF42F408
:100F3000804219462846FFF731FD00283FF479AF7B
:100F40009DE7B1283BD0B22800F09380B32841D070
:100F500000F0FC03B42B92D000F007020132012311
:100F600042F4002219462846FFF718FD00283FF4F6
:100F700060AF84E7C6284AD0C72854D000F0F803F1
:100F8000C02B63D0C82868D0C9287FF478AF30461A
:100F9000FFF71CFF020300F00F0002F47022013083
:100FA0000243012105232846FFF7F8FC00283FF4FF
:100FB00040AF64E7B8F1000F18D0002060E730467A
:100FC000FFF704FF024600283FF459AF10F0F0038A
:100FD000C8D054E73046FFF7F9FE020300F00F03D4
:100FE000013302F470221A430123BBE703AC4346EA
:100FF0000E22414600942846FFF7EAFA0094434641
:101000000F2241462846FFF709FB404638E73046A5
:10101000FFF7DCFE020300F00F03013302F470223D
:101020001A4303239EE73046FFF7D0FE024600280E
:101030003FF425AF10F0F0037FF421AF04212846E0
:10104000FFF7ACFC00283FF4F4AE18E700F00F0205
:101050000132032342F4202284E73046FFF7B6FE34
:1010600000F0F00200F00F031032013343EA0232C5
:1010700097E700230DF10C090D221946CDF80090D9
:101080002846FFF7A5FA3046FFF7A0FE02064FF00C
:1010900002040CD5039B00F07F00A040184403908D
:1010A0003046FFF793FE030604F10704F2D4039BD6
:1010B000CDF8009000F07F02A24003F501731A44BE
:1010C0000023039219460D222846FFF7A7FAB0E63F
:1010D00010B5C26C536884B04FF0030C08321C0288
:1010E00008461B0E01A9019402928DF80CC08DF8E0
:1010F0000D30FFF797FE04B010BD00BF08B5FFF735
:101100008FFE806C08BD00BF08B5FFF789FEC06C7C
:10111000C379023300EB830008BD00BFF0B585B092
:10112000CDE901010392062401AD20462946ABBE5C
:101130000446631C02D0204605B0F0BD00F0FAFC66
:1011400013260546002730463946ABBE06462046E4
:101150002E6005B0F0BD00BF2DE9F041204B1B68AB
:1011600084B006460C4615460BB19A69EAB1132EB7
:1011700020D81C4F57F836305A1C1BD0CDE901340B
:10118000039506240DF1040820464146ABBE0446F3
:10119000631C16D007EBC6002A1B436814461A448A
:1011A0004260204604B0BDE8F081184600F0C4FD5E
:1011B000132EDED900F0BEFC092303604FF0FF348C
:1011C000EFE700F0B7FC1326054600273046394606
:1011D000ABBE064620462E6004B0BDE8F08100BFDD
:1011E0000C000020040200202DE9F043354B1B6861
:1011F00083B00546884614460BB19A6912B3132D85
:1012000025D8314E56F83530591C20D0022C38D80C
:10121000012C30D0022C21D04446E946CDE90034DF
:101220000A2738464946ABBE07467B1C30D0002F04
:10123000AABF06EBC5054FF0FF346C60204603B033
:10124000BDE8F083184600F077FD132DD9D900F0E2
:1012500071FC092303604FF0FF34EFE700930C2487
:10126000E94620464946ABBE0446621C1FD056F8EC
:1012700035304444D2E706EBC502546818EB040449
:10128000CBD500F057FC162303604FF0FF34D5E7B1
:1012900000F050FC13250446002628463146ABBE1C
:1012A000054625603C46204603B0BDE8F08300F0CB
:1012B00041FC13260546002730463946ABBE06469C
:1012C0002E60BBE70C00002004020020FFF78CBF5B
:1012D000F0B585B0CDE901010392052401AD2046AA
:1012E0002946ABBE0446631C02D0204605B0F0BDC3
:1012F00000F020FC13260546002730463946ABBED9
:10130000064620462E6005B0F0BD00BF2DE9F04135
:101310002B4B1B6884B006460C4615460BB19A69E8
:1013200012B3132E25D8274F57F836305A1C20D029
:10133000CDE90134039505240DF10408204641460A
:10134000ABBE0446631C1BD0002C35DB07EBC6008C
:101350002A1B4368AC421344436018BF14461DD097
:10136000204604B0BDE8F081184600F0E5FC132EDD
:10137000D9D900F0DFFB092303604FF0FF34EFE71A
:1013800000F0D8FB13260546002730463946ABBE91
:10139000064620462E6004B0BDE8F08100F0CAFB8E
:1013A00013260546002430462146ABBE064620469D
:1013B0002E6004B0BDE8F0814FF0FF34D0E700BFED
:1013C0000C00002004020020F0B583B0022401903C
:1013D00001AD20462946ABBE0446631C02D0204620
:1013E00003B0F0BD00F0A6FB1326054600273046EB
:1013F0003946ABBE064620462E6003B0F0BD00BFA6
:10140000F0B5234B1B6883B005460BB19A69F2B166
:10141000132D21D81F4E56F835305A1C1CD06A1E89
:10142000012A03D8B168326991421CD00193022489
:1014300001AF20463946ABBE0446631C1BD01CB925
:101440004FF0FF3346F83530204603B0F0BD184664
:1014500000F072FC132DDDD900F06CFB0923036052
:101460004FF0FF34F0E700244FF0FF33204646F8FA
:10147000353003B0F0BD00F05DFB132605460027B4
:1014800030463946ABBE064620462E6003B0F0BD5E
:101490000C00002004020020012070470F4A034680
:1014A000D2F8A00010B5A0B1034469468B4209D818
:1014B0000B490C4C0968A14201D08B4202D8C2F8FA
:1014C000A03010BD00F036FB0C2303604FF0FF305E
:1014D00010BD0548C2F8A000E6E700BF04020020E6
:1014E00000000020ADDEFECAE0030020F8B51D4B71
:1014F0001B6804460E460BB19A69D2B1132C1DD855
:10150000194850F83430013318D073684FF48062B2
:1015100043F400537360B2640C2500EBC404284606
:101520002146ABBE0446631C0FD034610024204624
:10153000F8BD184600F000FC132CE1D900F0FAFACF
:10154000092303604FF0FF34F1E700F0F3FA1326AC
:101550000546002730463946ABBE06462E6020467B
:10156000F8BD00BF0C000020040200200B4610B59F
:10157000002104465822184600F000FD014620468E
:10158000BDE81040FFF7B2BF38B50C4605465822FB
:101590000021204600F0F2FC2846002100F012F85D
:1015A000431C05460BD0636843F401436360214646
:1015B000FFF79CFF034628461D46FFF721FF2846FC
:1015C00038BD00BF2DE9F0410346304E98B00F46BC
:1015D000002402E00134142C51D056F83450681C19
:1015E000F8D107F42062B2F5206F0DF1080838D069
:1015F000C7F3004540F20162B90748BF45F0020554
:10160000174218BF45F004053A0748BF25F0040506
:10161000184648BF45F00805029301F071FCCDE97A
:101620000350012528464146ABBE0546002D09DB87
:1016300006EBC403002246F834505A60204618B026
:10164000BDE8F08100F076FA132604460027304604
:101650003946ABBE064626602C46204618B0BDE88B
:10166000F081184641460193FFF78EFF0130019B40
:10167000BED000F05FFA112303602C46DEE700F0D5
:1016800059FA182303604FF0FF34D7E70402002013
:101690000EB400B50199FFF795FF5DF804EB03B0B8
:1016A000704700BF2DE9F043074683B03E488846A7
:1016B00000211646FFF786FF0021044632463846D1
:1016C00000F05CFC611C6DD0384B186810B1836968
:1016D000002B42D0132C44D8354D55F8343001330B
:1016E0003FD005EBC4090C2528464946ABBE05464C
:1016F0006A1C39D0032D41DD033DB5423EDD042295
:101700000DEB02012046FFF727FD032836DD9DF88B
:101710000430532B32D19DF80530482B2ED19DF843
:101720000630462B2AD19DF80730422B26D10122C4
:1017300041462046FFF758FD00281FDB3246394658
:101740002046FFF709FD05462046FFF759FE6B1CB2
:101750001DD0284603B0BDE8F08300F0EDFA132C4D
:10176000BAD94FF00009BEE700F0E4F913260546A8
:10177000002730463946ABBE06462E602046FFF7AE
:101780003FFE4FF0FF35284603B0BDE8F08300F080
:10179000D1F913260446002730463946ABBE06462B
:1017A0002660D6E72546D4E77C8100080C0000209F
:1017B0000402002010B50E4C6068002882B001DBE6
:1017C00002B010BD0021012201A8C4E90112FFF7F7
:1017D00069FF002809DD9DF8043003F0010003F0E3
:1017E0000203C4E9010302B010BD606802B010BD7D
:1017F0000000002010B50E4CA068002882B001DB6C
:1018000002B010BD0021012201A8C4E90112FFF7B6
:1018100049FF002809DD9DF8040000F0010300F0F5
:101820000200C4E9013002B010BDA06802B010BDD2
:10183000000000202DE9F04784B0464F01970323B4
:10184000002403934FF0010801AE02944046314654
:10185000ABBE8046404D2346C5F8A4804FF0FF3212
:1018600045F833200133142BFAD13C4CA368002BEC
:101870004FDB53B9D5F8A82001325CD0D5F8A420AD
:10188000C5E9002304B0BDE8F0874FF00309042345
:1018900001974FF00108CDF80C9002934046314675
:1018A000ABBE824608230197C5F8ACA0CDF80C90DA
:1018B000029340463146ABBE0646C5F8A8600136E5
:1018C00008BFD5F8AC20A36808BFC5F8A820002140
:1018D000D5F8A4208B42C5E900210FDA0122684621
:1018E000C4E90112FFF7DEFE002831DD9DF800306B
:1018F00003F0010203F00203C4E9012333B1D5E987
:101900002A210023C5E90213C5E9042304B0BDE878
:10191000F087002101226846C4E90112FFF7C2FEE8
:10192000002813DD9DF8003003F0010203F00203EC
:101930006260A3609DE7D5F8AC10D5F8A420C5F887
:10194000A810C5E9002304B0BDE8F087A36890E7BC
:10195000A368D3E79481000804020020000000205F
:1019600008B500F0E7F8582303604FF0FF3008BDDA
:10197000F0B583B00E24009001F0C2FA01906D46DC
:1019800020462946ABBE0446631C18BF002402D083
:10199000204603B0F0BD00F0CDF813260546002721
:1019A00030463946ABBE064620462E6003B0F0BD39
:1019B000F0B50D4650B10446112600273046394691
:1019C000ABBE0646F317C4E90063A76015B1002358
:1019D000C5E900330020F0BD30B5102400252046B5
:1019E0002946ABBE0446204630BD00BF70B5044654
:1019F0001025002628463146ABBE05461CB1C4E979
:101A00000056C4E90266284670BD00BF174B1B682C
:101A100070B505460BB19A69E2B1132D1FD8144871
:101A200050F8353001331AD0092400EBC5052046A3
:101A30002946ABBE0446012C20460AD000F07AF8B5
:101A400013260546002430462146ABBE06462E60CE
:101A5000204670BD184600F06FF9132DDFD900F055
:101A600069F809230360002070BD00BF0C0000204E
:101A700004020020F0B583B0D0B1009001F040FA2C
:101A8000122401906D4620462946ABBE0446631CD5
:101A9000254611D0FF2C05D824B16500C5F30723D6
:101AA000A34202D1284603B0F0BD6D00F6D1F9E79C
:101AB0000125284603B0F0BD00F03CF8132604468B
:101AC000002730463946ABBE06462660EAE700BF2F
:101AD000F0B585B00C46009001F012FA034620469E
:101AE000CDE9013401F00CFA0F2403906D46204635
:101AF0002946ABBE0446631C06D0003C18BF012437
:101B00006442204605B0F0BD00F014F813260546E7
:101B1000002730463946ABBE064620462E6005B04B
:101B2000F0BD00BF08B5062001F0CEF8012004F09A
:101B3000B1FC00BF014B1868704700BF0C000020CB
:101B400000207047014900F037B900BFE9410008A3
:101B50000020704770B568224D1E02FB05F50E4649
:101B600005F1740100F05CFA044640B100210C302C
:101B7000C4E90016A06005F1680200F0FFF92046F4
:101B800070BD00BF274B2DE9F0411E68B3690746C1
:101B900053B348364FF00408D6E90134013B04D56D
:101BA0001EE05A1C04F168041AD0B4F90C50013B31
:101BB000002DF6D11C4B6566C4E90055C4E90253FB
:101BC000C4E90455A5610822294604F15C0000F02F
:101BD000D5F9C4E90D55C4E912552046BDE8F08198
:101BE00035682DB12E46D7E7304600F01FF8D0E714
:101BF0004FF4D671384600F013FA044668B1056018
:101C0000C0F804800C302946A06025464FF4D072FD
:101C100000F0B4F934602E46BEE70C2330603B6020
:101C2000DBE700BF107F00080100FFFF2DE9F84F40
:101C3000344B35491A68816290424FF00003C0E985
:101C40001233036504BF012383610546FFF79AFF42
:101C500068602846FFF796FFA8602846FFF792FFC6
:101C60006F68E86000240423C7E902430822214684
:101C7000C7E90044C7E904447C66BC6107F15C0025
:101C800000F07CF9DFF88CB0AE68DFF88CA0DFF8EC
:101C90008C90DFF88C801D4BC7F828A0C7E9087B23
:101CA000C7F82C90C7F830800822F360C6E90044DA
:101CB000C6E904447466B460B461214606F15C0070
:101CC00000F05CF9C6E9086BC6E90AA9C6F83080DD
:101CD000EE680F4BF360C6E90044C6E9044474663D
:101CE000B460B4612146082206F15C0000F046F9B8
:101CF0000123C6E9086BC6E90B98C6F828A0AB61BA
:101D0000BDE8F88F107F0008451B0008090001009E
:101D100012000200392E0008612E0008A12E0008D2
:101D2000C12E0008024B0349186800F045B800BFF7
:101D3000107F0008E9410008836903B976E770471E
:101D4000704700BF704700BF704700BF704700BFBB
:101D5000024B0349186800F00FB800BF0C000020C8
:101D6000411B0008024B0349186800F005B800BF8A
:101D70000C000020511B00082DE9F041884600F1BD
:101D800048070026D7E90154013D0FD4A389012B50
:101D900005F1FF3506D9B4F90E300133204601D0E4
:101DA000C04706436B1C04F16804EFD13F68002F65
:101DB000E8D13046BDE8F0812DE9F8430746884672
:101DC00000F148064FF00009D6E90154013D11D455
:101DD000A389012B05F1FF3508D9B4F90E30013381
:101DE000214603D03846C04749EA00096B1C04F17C
:101DF0006804EDD13668002EE6D14846BDE8F88388
:101E000070B50D4E0D4D761BB61006D0002455F85A
:101E1000043B01349847A642F9D1094E094D761B7F
:101E200006F038F8B61006D0002455F8043B01340B
:101E30009847A642F9D170BDF4830008F4830008E6
:101E4000FC830008F4830008844641EA000313F091
:101E500003036DD1403A41D351F8043B40F8043BB1
:101E600051F8043B40F8043B51F8043B40F8043B74
:101E700051F8043B40F8043B51F8043B40F8043B64
:101E800051F8043B40F8043B51F8043B40F8043B54
:101E900051F8043B40F8043B51F8043B40F8043B44
:101EA00051F8043B40F8043B51F8043B40F8043B34
:101EB00051F8043B40F8043B51F8043B40F8043B24
:101EC00051F8043B40F8043B51F8043B40F8043B14
:101ED00051F8043B40F8043B403ABDD2303211D3B4
:101EE00051F8043B40F8043B51F8043B40F8043BF4
:101EF00051F8043B40F8043B51F8043B40F8043BE4
:101F0000103AEDD20C3205D351F8043B40F8043BB3
:101F1000043AF9D2043208D0D2071CBF11F8013BB1
:101F200000F8013B01D30B8803806046704700BF77
:101F3000082A13D38B078DD010F003038AD0C3F186
:101F40000403D21ADB071CBF11F8013B00F8013B68
:101F500080D331F8023B20F8023B7BE7043AD9D327
:101F6000013A11F8013B00F8013BF9D20B780370FC
:101F70004B7843708B78837060467047830730B529
:101F800048D0541E002A3FD0CAB2034601E0013CAB
:101F90003AD303F8012B9D07F9D1032C2DD9CDB2EB
:101FA00045EA05250F2C45EA054536D9A4F110026E
:101FB00022F00F0C03F1200EE6444FEA121C03F14D
:101FC000100242E9045542E9025510327245F8D137
:101FD0000CF1010214F00C0F03EB021204F00F0CD1
:101FE00013D0ACF1040323F003030433134442F889
:101FF000045B9342FBD10CF003042CB1CAB21C4425
:1020000003F8012B9C42FBD130BD64461346002CE3
:10201000F4D1F9E703461446BFE71A46A446E0E7C1
:10202000F8B5CD1C25F0030508350C2D38BF0C255F
:10203000002D064623DBA94221D8254F02F0C0F926
:102040003A6822B3144603E063682246FBB11C469B
:1020500023685B1BF8D40B2B15D8636894420CBF24
:102060003B605360304602F0ADF904F10B00231DD4
:1020700020F00700C21A01D01B1AA350F8BD0C2390
:1020800033600020F8BD23601C442560EAE77968CE
:10209000C9B12946304600F071FD431C0CD0C41C68
:1020A00024F00304A04205D0211A304600F066FD5A
:1020B000013001D02560D5E70C233046336002F0B3
:1020C00081F90020F8BD304600F058FD7860E0E767
:1020D000B40200202DE9F04757EC106B84B0002FBC
:1020E0000C46DDE90CA9904619465FDB0025B9F1E5
:1020F000660F0D701AD0B9F1460F17D029F02003E2
:10210000452B36D003AA019202AA009247EC106B2D
:1021100053462246022101F01FF8B9F1670F054628
:1021200034D118F0010F34D1039B1BE003AB0193B2
:1021300002AB009347EC106B53462246032101F09B
:102140000BF8054600EB04082B78302B33D0DAF877
:1021500000404444304639460022002304F02AF966
:10216000C8B123460E9A5B1B2846136004B0BDE835
:10217000F08703AA0192013402AA009247EC106B87
:1021800053462246022100F0E7FF0546B9F1470F0A
:10219000C7D02C44DEE7039B9C42E3D930215A1C74
:1021A00003921970039BA342F9D3DBE707F10043C5
:1021B0002D251F469BE7002200233046394604F0B8
:1021C000F9F80028C3D1C4F10104CAF80040C0E7FF
:1021D000F0B5002983B002703FDB841C2B23092952
:1021E000437030DD0DF107051F4FAC4687FB013210
:1021F000CB17C3EBA20303EB8302A1EB42020E4613
:102200003032632EE6460CF8012C19460CF1FF3CE7
:10221000ECDC3031AEF10203C9B29D420CF8011C76
:102220001FD96346224601E013F8011B02F8011B87
:10223000AB42F9D10DF10903A3EB0E0EA644AEEBB0
:10224000000003B0F0BD3023A64619440EF8023B4F
:102250006170AEEB000003B0F0BD4942841C2D2339
:10226000BDE7A646F5E700BF676666662DE9F04F55
:102270002DED028B8DB00C46DDF8608016461F46B2
:10228000054602F01DF80368184608EE103A00F003
:1022900037FE00230A93D8F800300790073323F065
:1022A000070303F10802D4F800B094F818A0C8F8A6
:1022B0000020D3E9008929F000430593CDF8108070
:1022C000C4E91289DDE90401A74B4FF0FF3204F0A5
:1022D000A3F848B9DDE90401A34B4FF0FF3204F045
:1022E0007DF8002800F0928042464B464046494621
:1022F00004F092F8002840F0348261684B1C2DD025
:10230000BAF1670F68D0BAF1470F65D04BF480621D
:102310000023226003930AAB029309AB49EC108BB4
:102320000093CDF804A00DF123032846FFF7D2FE59
:102330008046BAF1650F099934D80139524604F143
:1023400050000991FFF744FF0A9A1318012A8146A9
:10235000236140F37E810133236135E00621616012
:102360004BF480620023226003930AAB029309AB13
:1023700049EC108B0093CDF804A00DF123032846FF
:10238000FFF7A8FE0AF0DF03472B8046D1D1099959
:10239000C81C80F2FE80AAF1020A5FFA8AFABAF13A
:1023A000650FCAD9BAF1660F00F0FA800A9B8B421A
:1023B00040F301810029D4BFC1F10202012213447C
:1023C0002361A1654FF000099DF82330002B35D023
:1023D0002D2384F8433031E0002900F023814BF4B1
:1023E00080620023226003930AAB029309AB49EC9D
:1023F000108B0093CDF804A00DF123032846FFF7BE
:1024000069FE09998046C81CC5DBC2E040464946C2
:102410000022002303F0D8FF10B12D2384F84330AD
:10242000524B53482BF00402BAF1470F94BF984621
:1024300080460323226023614FF000090097334652
:102440000BAA2146284600F0ABF9013025D02368BD
:10245000580531D42369424631462846B8470130F1
:102460001BD02368E06813F0020F0B9B1CD0C21A2C
:10247000002A19DD04F119094FF0000804E0E068B2
:102480000B9BC21A42450FDD01234A4631462846BE
:10249000B847013008F10108F1D14FF0FF300DB01D
:1024A000BDEC028BBDE8F08F9842B8BF18460DB066
:1024B000BDEC028BBDE8F08FBAF1650F32D9D4E9DB
:1024C00012010022002303F075FF00287BD0294A67
:1024D000012331462846B8470130DED0DDE9092323
:1024E0009A4202DB2368D907BCD5079B18EE102A55
:1024F00031462846B8470130CFD00A9B012BB0DDCA
:1025000004F11A094FF0000803E00A9B013B434520
:10251000A7DD01234A46314628469844B847013092
:10252000F3D1BAE70A9A012A7FDD012342463146F8
:102530002846B8470130B0D0079B18EE102A314624
:102540002846B8470130A8D0D4E912010022002360
:1025500003F030FF002877D00A9B012B70DD04F1D7
:102560001A0A4FF000080BE0FFFFEF7F9881000888
:102570009C810008A88100080A9B013B43455FDD60
:1025800001235246314628469844B8470130F3D1DA
:1025900083E7636899423FF7FEAE4FF0670A05E7AD
:1025A00000295BDD63682161002B00F08980013325
:1025B0000B44236105E723682161DB077FF501AF49
:1025C0004B1C2361FDE6099B002B4FDD0A9BD4F8D1
:1025D00058A05345A8BF5346002B9B4608DD4246F2
:1025E00031462846B84701303FF457AFD4F858A0D9
:1025F0002BEAEB7BAAEB0B03002B6EDD04F11A0236
:102600004FF00009924604E0A36DA3EB0B024A458C
:1026100062DD01235246314628469944B8470130CD
:10262000F2D13AE7012161609AE6DB073FF57DAF21
:102630004246012331462846B84701303FF42DAFCA
:102640004B4604F1500207E70A9B08F10102013BE7
:10265000F0E72268D2077FF5B7AE7CE66368002B0F
:1026600033D12268D20730D40123A9E6494A012395
:1026700031462846B84701303FF40FAFDDE9092362
:10268000134324D0079B18EE102A31462846B8473A
:1026900001303FF402AF099B002B77DA04F11A0AEC
:1026A0004FF0000903E0099B5B424B456EDD0123BF
:1026B0005246314628469944B8470130F3D1ECE6FA
:1026C0002268D0077FF57DAE71E7023378E6236894
:1026D000DA077FF5C7AED5E79A46DDE909218A42D8
:1026E00002DB2368D8070AD5079B18EE102A31466B
:1026F0002846B84701303FF4D0AEDDE90921A1EB0F
:102700000A098A1A9145A8BF9146B9F1000F0BDD5D
:1027100008EB0A024B4631462846B84701303FF4E1
:10272000BCAEDDE90932D21A29EAE979A2EB090344
:10273000002B7FF796AE04F11A0A4FF0000807E06D
:10274000DDE909239B1AA3EB090343457FF789AE13
:1027500001235246314628469844B8470130EFD10C
:102760009BE64B46002BBCBF2D2384F843302BF057
:102770000403094A2360094BBAF1470F94BF9046FE
:102780009846032323614FF0000957E60A9B42460F
:1027900062E600BFA8810008A0810008A4810008AB
:1027A0002DE9F84F92461F460A698B68DDF828909C
:1027B0009A42B8BF1A46CAF8002091F843300C4636
:1027C000064613B10132CAF80020226891065DD591
:1027D000DAF800300233CAF80030226812F0060F2F
:1027E00011461ED1E168CB1A002BD8BF114618DD67
:1027F00004F1190B4FF0000805E0E568DAF8003045
:10280000ED1A45450CDD01235A4639463046C84786
:10281000013008F10108F0D14FF0FF30BDE8F88F2A
:10282000216894F84330003B18BF01238A060AD57B
:10283000E1185A1C302081F84300224494F84510D6
:1028400082F84310023304F1430239463046C84748
:102850000130E1D0236803F00603042B1DD0A368E8
:102860002269934225DD4FF000089B1A98441A34E0
:10287000002501E045451CDA012322463946304651
:10288000C847013005F10105F4D1C5E712F0060F84
:1028900012D0003B18BF0123D5E7DAF80030E16819
:1028A0002269C91AA368934221EAE178DDDC002994
:1028B000DDDC0020BDE8F88FE168DAF80030CB1AE3
:1028C000002BD8BF114693DCABE700BF2DE9F047E2
:1028D0000C4684B09046227E0C990746994604F136
:1028E0004300002A33D0A2F15803DDB2202D67D86F
:1028F000202B65D8DFE813F0DE006400640064007C
:102900006400640064006400640064006400A30068
:102910006E0064006400640064006E006400640083
:102920006400640021007F00C00064006400AE0009
:1029300064007F0064006400E50023681A0640F12B
:1029400004810B6862691D1D0D601B681A600023FD
:1029500082462361CDF80090434603AA21463846BB
:10296000FFF71EFF013020D023695246414638460A
:10297000C847013019D02368E068039E9B0719D52A
:10298000831B002B16DD04F1190A002504E0E06822
:10299000039E831BAB420DDD012352464146384660
:1029A000C847013005F10105F1D14FF0FF3004B007
:1029B000BDE8F087B042B8BF304604B0BDE8F0874C
:1029C000012384F84220236104F1420A002384F8A1
:1029D0004330BFE723681A0602D45E0600F1C180C7
:1029E0000D682A6804350D601546002A6BDBDFF898
:1029F00084C10A2610E023681D0640F19C800B6804
:102A00001D1D0D601D68DFF86CC16F2A0CBF082604
:102A10000A26002384F843306268A260002A7FDB24
:102A2000236823F004032360002D5BD1002A79D1B1
:102A30008246082E65D0A0EB0A0020618AE70B6869
:102A40000122186804330B6004F1420A84F8420042
:102A50002261BBE70B686268181D0860D3F800A00C
:102A60000021504601F05CFC002800F08180A0EBC2
:102A70000A0060602061A9E7236843F02003236017
:102A80007822DFF8F4C084F845200A68151D0D602F
:102A90001D0643D4590641D51588DE0744BF43F0CF
:102AA00020032360002D44D1236823F020032360FA
:102AB0001026AEE7582384F84530DFF8B8C0236805
:102AC000E3E72368DCE76268A2602D21002AC5F1F4
:102AD000000584F8431002DB23F004032360DFF8D1
:102AE00094C00A268246B5FBF6F306FB13512A462C
:102AF0001CF801100AF8011DB2421D46F3D2082E3F
:102B000099D12368D90796D5626823699A4292DCE5
:102B100030230AF8013C0AF1FF3A8CE71568BCE75C
:102B2000002DDFD19CF8003084F8423004F1420AD5
:102B30007FE710266DE713F0400F0B6803F10405E3
:102B40000D600CBF1D681D885DE713F0400F0B681A
:102B5000626903F104050D601B6814BF1A801A60D6
:102B6000F5E60A68B2F9005004320A602A463CE7EA
:102B700060687FE7AC810008C081000838B5074D68
:102B80000022044608462A6005F0A8F8431C00D03D
:102B900038BD2B68002BFBD0236038BDBC02002061
:102BA00038B5446C0CB1002038BD80210546FFF7D4
:102BB00037FA0246686430B1031F7C3243F8044F91
:102BC0009342FBD1EFE74FF0FF3038BD1F29F8B536
:102BD000054608D8466C0C4617464EB156F82400F8
:102BE00046F82470F8BD162303604FF0FF30F8BD9F
:102BF0008021FFF715FA0646686440B1031F00F113
:102C00007C05002143F8041F9D42FBD1E6E74FF00D
:102C1000FF30F8BD1F2938B5054620D8426C0C4658
:102C20006AB152F8213053B1012B16D0591C10D083
:102C30000025204642F824509847284638BD2846AB
:102C400000F0F8F8224601462846BDE8384000F07A
:102C5000DBB816230360012038BD002038BD1623E1
:102C600003604FF0FF3038BD1F292AD8426C38B5B9
:102C70000C46054682B152F8243002EB84024BB177
:102C8000591C19D0012B15D00025204615609847F6
:102C9000284638BD012038BD8021FFF7C1F9024622
:102CA000686458B1031F00217C3043F8041F984228
:102CB000FBD1E0E7032038BD022038BD4FF0FF30E4
:102CC00038BD4FF0FF30704738B5144B1F281D68D2
:102CD0001FD86A6C044662B152F820304BB1012B08
:102CE00015D0591C0FD0002542F82050984728468F
:102CF00038BD284600F09EF8224601462846BDE829
:102D0000384000F081B816232B60012038BD002028
:102D100038BD16232B604FF0FF3038BD0C0000206B
:102D2000124B1F2870B51E6808D80D46716C0446FA
:102D300049B151F8240041F8245070BD1623336086
:102D40004FF0FF3070BD80213046FFF769F9014632
:102D5000706440B1031F00F17C0C002243F8042F83
:102D60006345FBD1E5E74FF0FF3070BD0C0000205C
:102D700038B50B4B1D686C6C0CB1002038BD802140
:102D80002846FFF74DF9686438B1031F00F17C0253
:102D900043F8044F9342FBD1EFE74FF0FF3038BDCB
:102DA0000C00002038B5174B1F281D6826D86A6C08
:102DB000044682B152F8243002EB84024BB1591C14
:102DC0001AD0012B16D000252046156098472846BA
:102DD00038BD012038BD80212846FFF721F9024681
:102DE000686458B1031F00217C3043F8041F8342FC
:102DF000FBD1DFE7032038BD022038BD4FF0FF30A4
:102E000038BD00BF0C00002070B50C46084D0346CD
:102E10000026204611461C462E6003F05DFB431C35
:102E200000D070BD2B68002BFBD0236070BD00BFAD
:102E3000BC020020FEF730BB10B50C46B1F90E10F5
:102E400002F0A8F8002803DB636D0344636510BD3E
:102E5000A38923F48053A38110BD00BF00207047D5
:102E60002DE9F0410C46B1F90C101F46CB05054683
:102E700016460BD421F48051A1813B46B4F90E10C3
:102E800032462846BDE8F04100F0A8B8B4F90E106B
:102E90000223002201F01CFAB4F90C10EAE700BF8B
:102EA00010B50C46B1F90E1001F012FAA389421CBC
:102EB0000EBF23F4805343F480536065A38110BD9B
:102EC000B1F90E1000F0A0B80000000000000000F2
:102ED00000000000000000000000000000000000F2
:102EE00000000000000000000000000000000000E2
:102EF00000000000000000000000000000000000D2
:102F000090F800F06DE9024520F007016FF0000C29
:102F100010F0070491F820F040F049804FF00004D1
:102F20006FF00700D1E9002391F840F000F10800AC
:102F300082FA4CF2A4FA8CF283FA4CF3A2FA8CF3E4
:102F40004BBBD1E9022382FA4CF200F10800A4FA4B
:102F50008CF283FA4CF3A2FA8CF3E3B9D1E904239F
:102F600082FA4CF200F10800A4FA8CF283FA4CF3D6
:102F7000A2FA8CF37BB9D1E9062301F1200182FA90
:102F80004CF200F10800A4FA8CF283FA4CF3A2FA96
:102F90008CF3002BC6D0002A04BF04301A4612BAA4
:102FA000B2FA82F2FDE8024500EBD2007047D1E9A7
:102FB000002304F00305C4F100004FEAC50514F036
:102FC000040F91F840F00CFA05F562EA05021CBF07
:102FD00063EA050362464FF00004A9E738B50C46E2
:102FE000084D8446114620461A4600232B6064464D
:102FF000FEF78CF9431C00D038BD2B68002BFBD0AA
:10300000236038BDBC02002038B5074D00220446BD
:1030100008462A60FEF7F4F9431C00D038BD2B683F
:10302000002BFBD0236038BDBC0200200000000054
:103030002DE9F04F03690C69A34283B0C0F2878089
:10304000013C01F11405A30000F11408009355F8A8
:10305000243058F82420013381469A4208EB84003A
:1030600005EB84070190B2FBF3F63BD30023AE4699
:1030700040469B465EF804AB02681FFA8AFC06FBDA
:103080000C334FEA134C4FEA1A4A06FB0ACA1FFADE
:1030900083FCABEB0C0C1FFA8AF31CFA82FCC3EB2B
:1030A000124202EB2C421FFA8CFC4CEA0243774599
:1030B00040F8043B4FEA224B4FEA1A43DAD2009B16
:1030C00058F8033073B9019B043B984504D307E0DB
:1030D000984504F1FF3403D253F80429002AF7D0AD
:1030E000C9F81040484601F077FC00282BDB013678
:1030F0004046002355F8041BD0F800C08AB29A1A43
:103100000B0C12FA8CF2C3EB1C4303EB224392B27A
:1031100042EA0342AF4240F8042B4FEA2343E9D28C
:1031200058F8242008EB84036AB9043B984504D37B
:1031300007E0984504F1FF3403D253F80429002A2C
:10314000F7D0C9F81040304603B0BDE8F08F00203A
:1031500003B0BDE8F08F00BF2DE9F04F2DED068BD9
:10316000466A95B08DED020B249C019159EC108BB1
:10317000054609920693002E00F00683316849B196
:1031800072684A60012393408B6001F05DF96B6ABD
:1031900000221A60B9F1000AB4BF012300232360A2
:1031A0007B4BBCBF2AF0004ACDF80CA033EA0A03DF
:1031B00000F0B2809DED027B002251EC170BB0EEC7
:1031C000479AF0EE679A002303F0F4F8074680B1BF
:1031D000069A01231360259B002B00F0EF826D48B7
:1031E0001860431E0093009815B0BDEC068BBDE837
:1031F000F08F12AA13A92846B0EE490AF0EE690A28
:1032000001F042FDB0EE498AF0EE698A5FEA1A5693
:10321000044640F09980DDE912763E4406F23240E1
:10322000202840F3BF83C0F140000AFA00FA06F2FA
:10323000124028FA00F04AEA000002F0D9FD01230A
:10324000013E0D93A1F1F871534B002202F092FC64
:1032500049A3D3E9002302F045FE49A3D3E90023A3
:1032600002F08AFC80463046894602F0D1FD46A332
:10327000D3E9002302F036FE02460B46404649469B
:1032800002F07AFC8046894603F0DCF8002283468F
:1032900000234046494603F097F8002840F0818219
:1032A000BBF1160F00F263823C4B03EBCB03D3E977
:1032B000002351EC190B03F087F8002874D0002389
:1032C000BE1B0C93731E0BF1FF3B049300F156825F
:1032D00000230893BBF1000F6DDA089BCDF814B002
:1032E000A3EB0B030893CBF100030B93019B092B7A
:1032F0004FF0000B68D8052B40F35283043B019339
:103300000026019B023B032B00F2AC86DFE813F0A2
:10331000650462045A043C04069A42F20F73CAF32D
:10332000130A13605AEA08031DD1259B002B00F0F5
:1033300095861B4B00930833259A0098136015B0AF
:10334000BDEC068BBDE8F08F18EE903AC3F3130383
:1033500051EC190B43F07F510D97A6F2FF36129FE7
:1033600041F4401170E7259B002B40F0F0830D4B9A
:10337000009338E7AFF3008061436F63A787D23FC4
:10338000B3C8608B288AC63FFB799F501344D33F54
:103390000000F07FA98100080000F83F287F0008A6
:1033A000D4810008E0810008BE1B731E049300F165
:1033B000D9840C900890049B5B44CDE9043B002326
:1033C0000B93019B092B96D9002301264FF0FF3266
:1033D00001930A96079209936B6A00215960079B33
:1033E0000F93284600F0F0FF0090002800F043867D
:1033F0006B6A009A1A60079B0E2B00F2F980002E70
:1034000000F0F6800599002940F38084BD4B01F05F
:103410000F0203EBC2034FEA2118C905D3E9006785
:1034200040F11384B84B51EC190BD3E9082302F097
:1034300083FE41EC180B08F00F084FF0030AB8F1B7
:10344000000F13D0DFF8C09218F0010F09D03046FA
:103450003946D9E9002302F045FD0AF1010A064682
:103460000F465FEA680809F10809EDD151EC180B25
:1034700032463B4602F060FE41EC1A0B0C9B5BB1FE
:1034800057EC1A6BA14B1AEE100A0022394602F0D3
:103490009BFF002840F06C85504602F0B9FC53ECCD
:1034A0001A2B02F01FFD9A4B002202F065FB079BCE
:1034B0008046A1F15079002B00F00484059B109305
:1034C000079B0E930A9B002B00F0D6840E9A8D4B1F
:1034D0009049DDF800A003EBC20353E9022300206A
:1034E00002F02AFE42464B4602F044FB59EC1A8B8E
:1034F00041EC180B49461AEE100A02F0A3FF0746EA
:1035000002F086FC02460B461AEE100A494602F00B
:1035100031FB30370AF8017B53EC182B06460F4677
:1035200002F052FF002840F067854FF000080AEED5
:10353000104A0AEE905ACDF844B0554644465BEC2A
:1035400018AB2AE00E9B01349C424BDA724B50467A
:103550005946002202F0C6FC6F4B002282468B4681
:103560003046394602F0BEFC8946804602F06AFFCA
:10357000074602F04DFC02460B464046494602F023
:10358000F9FA303705F8017B52465B4606460F468E
:1035900002F01AFF002840F02A8532463B465B497C
:1035A000002002F0E7FA52465B4602F00DFF0028C9
:1035B000C8D0109B009A0593AA461AEE104A1AEE3C
:1035C000905A02E0524500F0FC84D1461AF8013DC1
:1035D000392BF7D00133DBB28AF80030059B013379
:1035E0000593BEE1DDF844B01AEE104A1AEE905A87
:1035F000139B002BC0F29480059A0E2A00F3908052
:10360000404B03EBC203D3E90089099B002B1BDA73
:10361000079B002B18DC40F06E83404B0022404695
:10362000494602F05FFC02460B4651EC190B02F0D2
:10363000D5FEDDF81CA05646002800F0E682099B66
:10364000DDF80080DF43E8E242464B4651EC190BBF
:1036500002F072FD02F0F6FE0646834602F0D8FB49
:1036600042464B4602F03EFC0B46024651EC190B1B
:1036700002F080FADDF800A0334630330AF8013B4F
:10368000079B012B00F09F834FF0010B08EE104ABF
:1036900008EE905A54461D46DA461DE042464B4617
:1036A0003046394602F048FD02F0CCFE834602F077
:1036B000AFFB42464B4602F015FC0AF1010A0B46ED
:1036C00002463946304602F055FA0BF13003AA455E
:1036D00004F8013B00F072830F4B002202F002FC61
:1036E0000022002306460F4602F064FE0028D5D0D3
:1036F000A24618EE905A18EE104A059B0133059326
:10370000D1462EE1287F0008188000080000F03F15
:1037100000001C400000E03F000024400000144076
:103720000A9A002A52D0019A012A40F3A682079BE6
:1037300003F1FF380B9B434580F284820B9BCDF84D
:103740002C80A8EB03039B444FF00008079B002B41
:10375000C0F27183049A1A440492089A17461A44D4
:1037600008920121284600F08FFF064632E001232F
:10377000BE1B0C93731E04937FF5AAADC6F1010323
:10378000089300230493A5E5102000F0B7FD02463E
:103790006862002800F05D84C0E901660660C660CA
:1037A000F8E4584602F034FB42464B4602F002FE73
:1037B00000287FF475AD0BF1FF3B71E5874B00935B
:1037C000009815B0BDEC068BBDE8F08FDDF82C80BD
:1037D000089F0A9E002F0CDD049A002A09DD089933
:1037E000BA421346A8BF3B46C91AFF1AD31A08911A
:1037F00004930B9BDBB10A9B002B00F08082B8F195
:10380000000F0FDD31464246284601F001F82246FE
:1038100001460646284600F04DFF2146044628464C
:1038200000F012FE0B9BB3EB080240F0FE82012178
:10383000284600F029FFBBF1000F824600F3B78055
:10384000019B012B40F388814FF000080120BBF160
:10385000000F40F0B880049A104410F01F0000F0F0
:103860009680C0F12003042B40F30C84089BC0F128
:103870001C0003440244089307440492089B002B55
:1038800005DD21461A46284601F032F80446049B1D
:10389000002B05DD51461A46284601F029F88246DC
:1038A0000C9B002B40F03881079B002B40F31F81BD
:1038B0000A9B002B40F0A280059B01330593DDF8A5
:1038C0000080DDF81C90012707E0214600230A2232
:1038D000284600F0DDFD0137044651462046FFF73B
:1038E000A7FB4F4500F1300008F8010BEDDB079A0C
:1038F000002AC8BF9346009AD8BF4FF0010B034679
:1039000093440027214601222846019300F0F0FF4E
:103910005146044601F060F8002840F3A3811BF8EB
:10392000013C009A0BF1FF3B04E05A4500F0B581E1
:103930001BF8013D392B0BF10109F6D001338BF84F
:1039400000305146284600F07FFD56B12FB1B742F6
:1039500003D03946284600F077FD3146284600F06E
:1039600073FD2146284600F06FFD002389F80030E2
:10397000DDE905231A60259B002B3FF434AC009849
:10398000C3F8009015B0BDEC068BBDE8F08F1C208D
:10399000089B03440893049B0344074404936DE786
:1039A0000126AEE4C0F1200008FA00F045E401462B
:1039B0005A46284600F02CFF019B012B824640F31B
:1039C000D3814FF00008DAF810300AEB830318694E
:1039D00000F00AFEC0F120003DE700BFA88100080A
:1039E000314600230A22284600F052FD0F9B002B8F
:1039F000064640F31F83CDF814900793002F00F381
:103A00001A81B8F1000F40F0F981B046029B009F87
:103A1000079903F001027B1E1944019B0A9213438C
:103A20000891099351462046FFF702FB3146834631
:103A3000204600F0D1FF424651468146284600F01C
:103A4000EDFFC26801460BF13003002A42D1049019
:103A50002046079300F0C0FF04990290284600F02A
:103A6000F3FC029A079B1AB90999002900F0D48245
:103A7000B9F1000FC0F28481019949EA01090A995C
:103A800051EA090100F07C81002A00F3D881089AEC
:103A90003B7007F101099742CB4600F0E3812146D4
:103AA00000230A22284600F0F3FC4645044631462E
:103AB0004FF000034FF00A02284612D000F0E8FC55
:103AC0004146064600230A22284600F0E1FC4F4604
:103AD0008046A7E72846029300F0B6FC029B01222D
:103AE000C6E700F0D5FC4F46064680469AE7019BA4
:103AF000022B79DC0A9B002B80D1059B51460133B8
:103B000020460593FFF794FADDF800B000F130038A
:103B10000BF8013B0027F5E65146204600F05CFF1C
:103B20000028BFF6C1AE214600230A22284600F035
:103B3000AFFC059B03F1FF390A9B0446002B7FF481
:103B40004FAF0F9B002B40F36E820793B7E6BF4B3E
:103B500000930333FFF7F0BBDDE9021200297FF485
:103B600073AEC2F31303002B7FF46EAEB84B134059
:103B7000002B00F03A82089B01330893049B013329
:103B800004934FF0010861E601230A93099B059A0B
:103B900013440F930133012B18460793B8BF01203C
:103BA0006F6A0021172879607FF71BAC012204237C
:103BB0005B0003F1140C8445114602F10102F7D9B0
:103BC00079600EE401230A930998002845DD0F90DF
:103BD0000790E5E700230A93D8E700230A93F3E769
:103BE0000F9BCDF814900793079B002B7FF427AD14
:103BF00051460522284600F04BFC014682462046ED
:103C000000F0EAFE00287FF71AAD0098059F3123E7
:103C1000804600F8013B013700905146284600F0ED
:103C200013FC7B1CDDF800900593CDF80080002E7E
:103C30007FF493AE95E631463A46284600F058FEAA
:103C40000646DEE6A3EB080880E54FF0020AB0EE78
:103C5000498AF0EE698AFFF7F2BB012309930793C3
:103C6000FFF7BABB03D1019BDB073FF558AED9463E
:103C70001BF8013D302BFAD063E60D9A002A00F0C4
:103C8000F78003F23343049ADDF82C801A4404923F
:103C9000089A17461A44089263E5059B009A013377
:103CA0000593312313704CE6504602F0B1F853EC03
:103CB0001A2B02F017F9674B002201F05DFF8046D6
:103CC000A1F15079644B002251EC1A0B01F052FF24
:103CD00042464B4606460F4602F094FB002840F051
:103CE000808130463946424609F1004302F06CFBC0
:103CF00000283FF47DAC4FF0000A56469FE4214671
:103D00000B9A284600F084FD044690E500F02881D7
:103D1000059A524B564206F00F0203EBC203D3E959
:103D2000002351EC190B02F0DDF8361141EC1A0BAF
:103D300000F08B814A4F00234FF0020AF20706D5AC
:103D4000D7E9002302F0CEF80AF1010A0123761028
:103D500007F10807F2D1002B3FF490AB41EC1A0BAE
:103D6000FFF78CBB0C9009E5029B002B7FF429AE7A
:103D7000DDE90212C2F31303002B3FF4F7AE20E695
:103D8000002A12DD214601222846019300F0B0FDF1
:103D90005146044600F020FE0028019B40F3368186
:103DA000392B00F014810BF13103B94609F8013BBE
:103DB000059B0133374605934646C2E5A24618EEF9
:103DC000905A18EE104A02460B4601F0D5FE4246C4
:103DD0004B4606460F4602F015FB60B942464B467D
:103DE0003046394602F0E6FA00283FF486AC5FEA36
:103DF000CB717FF582AC009AFFF7E7BB716828466C
:103E000000F0E2FA0746002800F0418133690233EE
:103E10009A0006F10C010C30FEF716F83946012223
:103E2000284600F065FD8046F0E52146284600F072
:103E3000EFFC0446FBE4DDE907239F1A91E4392BEC
:103E400000F0C580B9460133B0E700BFE08100084B
:103E50000000F07F00001C4000001440287F000894
:103E600018800008059A013237460592464649E512
:103E7000129BC3F1360306E70E988E4901EBC00191
:103E800042464B4651E9020102F02CF85AEC1A9BCB
:103E900041EC180B51461AEE100A02F0D3FA07460D
:103EA00001F0B6FF02460B461AEE100A514601F029
:103EB00061FE06460E98DDF800803037012808F8CC
:103EC000017B0F4600F0BF800E9B009ACDF838B002
:103ED00013449B46C246784B00223046394602F0D6
:103EE00001F88946804602F0ADFA074601F090FFDE
:103EF000303702460B464046494601F03BFE0AF881
:103F0000017BDA4506460F46E5D1DA46DDF838B0E2
:103F10006A4B59EC188B002218EE100A494601F042
:103F20002BFE32463B4602F04FFA002869D118EECC
:103F3000102A4B466149002001F01CFE32463B46E8
:103F400002F060FA00283FF453ABD1460AF1FF3A81
:103F500019F8013C302BF8D0109B0133059300E594
:103F60004FF0020AB0EE49AAF0EE69AAFFF786BA4E
:103F7000079B002B3FF498AE0F9B002B7FF738ABCD
:103F8000059A0E93013A4C4B10921AEE100A3946DC
:103F9000002201F0A7FF024616460F460AF1010073
:103FA00001F036FF32463B4601F09CFF444B0022B5
:103FB00001F0E2FD47EC1A6B8046A1F15079FFF762
:103FC00081BA059B013305933123FFF705BB059BA0
:103FD000BB4601330593392337460BF8013B464670
:103FE0009FE44FF0000A56460FE698462EE4AA4694
:103FF0001AEE104A1AEE905A109B01330593D146DF
:10400000AFE4109B009A0593FFF7DFBA7FF4CDAEC3
:10401000DA077FF5CAAEC3E6392BD8D0B9F1000F65
:104020003FF7C1AEC1E6019B022B3FF7D9ADCDF8FA
:10403000149062E5019B022B3FF7D2AD0F9BCDF8A8
:1040400014900793DAE4C24662E74FF0020AFFF7E2
:1040500015BA1C4B1C48EA2100F0B2FF1B4B009321
:10406000FFF7C1B86B6A00265E603146284600F053
:10407000ABF9009090B9164B134800224FF4D5715C
:1040800000F09EFF3FF4FAABC0F13C0080E4104B1F
:104090000D483A4640F2EA2100F092FF6B6A009A1E
:1040A0001A604FF0FF33012209960F930A9207938B
:1040B000FFF79EBA287F0008000024400000E03F80
:1040C00000001C40E4810008FC810008D481000845
:1040D000308200088B891A072DE9F0410C46804692
:1040E0003FD44A68002A58DDE66A002E52D00022EA
:1040F000D8F80050C8F8002013F4805251D10123A1
:10410000216A4046B047431C5ED0A389E66A5F0738
:1041100005D56368C01A636B0BB1236CC01A216AA2
:10412000024600234046B047411C3CD1D8F800303D
:10413000002B38D01D2B01D0162B4DD12369002226
:10414000C4E90032616BC8F8005019B304F14403AC
:10415000994202D0404600F0BBFE00206063BDE8FB
:10416000F0810E69B6B10D680E609A070CBF4B69FD
:104170000023AD1B8B600BE02B463246216AA76AF9
:104180004046B847B0F1000CA5EB0C05664413DDC2
:10419000002DF1DC0020BDE8F0810A6C002AA3DCD0
:1041A000F8E7606DB3E70023636023692360A389A8
:1041B000DB04C7D56065C5E7A38943F040034FF032
:1041C000FF30A381BDE8F081D8F80030002B9CD0EF
:1041D0001D2B06D0162B04D0A38943F04003A381E6
:1041E000D9E7C8F80050D5E738B50B69BBB10D4623
:1041F000044608B18369B3B10D4B9D4211D00D4BFC
:104200009D4213D00C4B9D4208BFE568B5F90C30B8
:104210002BB129462046BDE83840FFF75BBF0020A0
:1042200038BD6568F2E7FDF787FDE5E7A568EDE7CE
:10423000F07E0008D07E0008B07E000838B540B39C
:1042400003690446E3B1174B1D680DB1AB69CBB1EF
:10425000154B9C420FD0154B9C4221D0144B9C42D5
:1042600008BFEC68B4F90C3053B121462846BDE8CC
:104270003840FFF72FBF6C68B4F90C30002BF4D135
:10428000002038BD2846FDF757FD074B9C42E2D180
:10429000F1E7084B08491868BDE83840FDF78CBDC8
:1042A000AC68DFE70C000020F07E0008D07E00083C
:1042B000B07E0008107F0008E9410008F030704728
:1042C00000487047600100200048704760010020EE
:1042D00038B50C46084D8446114620461A46002340
:1042E0002B606446FCF7F2FF431C00D038BD2B68FE
:1042F000002BFBD0236038BDBC020020024B0146DE
:104300001868FDF78DBE00BF0C000020024B01466F
:10431000186800F0DDBD00BF0C00002000000000A8
:1043200001F0FF01102A2BDB10F0070F08D010F866
:10433000013B013A8B422DD010F0070F42B3F6D16A
:10434000F0B441EA012141EA014122F007047FF083
:1043500000070023F0E80256083C85EA010586EADA
:10436000010685FA47F5A3FA87F586FA47F6A5FA16
:1043700087F68EB9EED1F0BC01F0FF0102F0070222
:1043800032B110F8013B013A83EA010313B1F8D1CD
:104390000020704701387047002D06BF35460338AE
:1043A000073815F0010F07D1013015F4807F02BFE7
:1043B000013015F4C03F0130F0BC0138704700BF38
:1043C000704700BF704700BF70B5466A05460C468F
:1043D0005EB1F368A3B153F82400E8B1026843F872
:1043E00024200023C0E9033370BD1020FFF786FFAF
:1043F00006466862E8B10023C0E901330360C36088
:1044000021220421284600F055FD6B6AF060DB682C
:10441000002BE0D1002070BD012101FA04F6721DCD
:104420009200284600F046FD0028F3D0C0E901467E
:10443000D7E7034B03483246662100F0C1FD00BFB9
:10444000E48100084482000870B5456A04460E46BF
:104450004DB13EB1636A7268DB6853F82200306088
:1044600043F8226070BD1020FFF748FF02466062EB
:1044700020B1C0E901550560C560EAE7024B034879
:104480008A2100F09DFD00BFE481000844820008FD
:10449000F0B50C69064683B00D4601F1140E0020FC
:1044A000DEF800101FFA81FC02FB0C334FEA134CBC
:1044B000090C02FB01CC01309BB203EB0C4384429C
:1044C0004EF8043B4FEA1C43EADC3BB1AA68A24227
:1044D00007DD05EB8402013453612C61284603B0EB
:1044E000F0BD6968019301313046FFF76DFF019B14
:1044F0000746A0B12A6901930232920005F10C012E
:104500000C30FDF7A1FC294630463D46FFF79CFFE5
:1045100005EB8402019B536101342C61DEE7034B00
:1045200003483A46B52100F04BFD00BF3082000839
:10453000448200082DE9F8430C4628491F461646D8
:1045400003F1080281FB0231092F4FEAE2730546AD
:10455000C3EB610339DD4FF0010C00214FEA4C0C35
:10456000634501F10101F9DC2846FFF72DFF014603
:1045700068B3089B4361092E4FF00103036112DC0D
:104580000A340926B7420BDDBE1B264414F8013B52
:104590000A22303B2846FFF77BFFA6420146F5D1B1
:1045A0000846BDE8F88304F10909C846344418F800
:1045B000013B0A22303B2846FFF76AFFA04501462F
:1045C000F5D1A6F108044C44DCE70021CCE70A460B
:1045D000034B0448CE2100F0F3FC00BF398EE338D2
:1045E0003082000844820008030C1B04D3B9000485
:1045F000102310F07F4F04BF0002083310F0704FFB
:1046000004BF0001043310F0404F04BF80000233A8
:10461000002805DB10F0804F03F1010308BF2023C1
:10462000184670470023E4E7036813F007020146C9
:1046300007D0DA071FD4980721D55B080B6001204B
:10464000704798B2A0B11046DAB20AB908301B0A16
:104650001A0704BF1B0904309A0704BF9B080230E5
:10466000DA0703D45B0800F1010006D00B60704745
:104670001B0C1020E8E700207047202070479B08A3
:104680000B600220704700BF10B50C460121FFF7F8
:104690009BFE024618B10123C0E9043410BD034B50
:1046A00003484FF4A07100F08BFC00BF308200087B
:1046B000448200082DE9F04F0E691569AE4285B0BD
:1046C0008846144605DB2A46234635460C461646E0
:1046D0009846A3686168AF19BB42B8BF0131FFF7C4
:1046E00073FE0190002800F08780019B03F11409FC
:1046F00009EB870AD14505D24B46002243F8042B2B
:104700009A45FBD808F1140808EB860B04F1140352
:10471000D8451A4603EB85055FD22B1B153B23F0CA
:10472000030304331534A54238BF0423CDE902A79F
:10473000AC461F46924605E0000C29D1C34509F15D
:10474000040948D958F8040B85B2002DF4D0564618
:104750004C46002356F8040B216882B21FFA81FEF2
:1047600005FB02EE000C0A0C734405FB002202EB71
:1047700013429BB243EA0243B44544F8043B4FEA78
:104780001243E7D849F8073058F8040C000CD5D08C
:10479000D9F80030544619464D4600222688090CA7
:1047A00000FB06110A449BB243EA024345F8043B6E
:1047B00054F8046B2968360C8BB200FB063303EB0C
:1047C0001243A4454FEA1342E8D8C34549F80730DD
:1047D00009F10409B6D8DDE902A7002F02DC05E0E3
:1047E000013F03D05AF8043D002BF9D0019B184635
:1047F0001F6105B0BDE8F08F034B0448019A40F2F9
:104800005D1100F0DDFB00BF30820008448200082B
:104810002DE9F04112F0030382B0144607462DD172
:104820000E46A4101CD07A6A8AB39568002D39D040
:10483000E3074FF0000806D4641011D0286898B13F
:104840000546E307F8D531462A463846FFF732FFDA
:104850003146034638461E46FFF7F6FD6410EDD19B
:10486000304602B0BDE8F0812A4629463846FFF7B7
:1048700021FF2860C0F800800546E2E7013B184AA6
:1048800052F823200023FFF703FE0646C9E7102055
:10489000FFF734FD02467862E0B10023C0E901333E
:1048A0000360C360012138460192FFF78DFD019A34
:1048B000054640B1012340F27121C0E904310023D3
:1048C00090600360B4E7074B07482A464FF4A07195
:1048D00000F076FB054B04484FF4D77100F070FBF5
:1048E000187F00083082000844820008E481000834
:1048F0002DE9F0470D4691462F69AB68496807EBF3
:1049000062177C1C9C4280464FEA621A04DD5B0001
:104910009C4201F10101FADC4046FFF755FD0646D5
:1049200000284DD0BAF1000F00F114000EDD0AF19D
:1049300005024FEA820C034606EB8202002143F88F
:10494000041B9342FBD1ACF114031844296905F10F
:10495000140319F01F0903EB810129D0C9F1200EBE
:1049600084464FF0000A1A6802FA09F242EA0A0283
:104970004CF8042B53F8042B994222FA0EFAF2D881
:104980004B1B153B23F00303043305F11502914241
:1049900038BF0423BAF1000F18BF274640F803A020
:1049A000404637612946FFF74FFD3046BDE8F087A6
:1049B000043853F8042B40F8042F9942F9D8EFE754
:1049C000034B0448324640F2D91100F0F9FA00BF17
:1049D00030820008448200080B6984460069C01ACE
:1049E00016D10CF1140C14310CEB830210B401EB52
:1049F000830301E0944508D252F8044D53F8041D96
:104A00008C42F7D005D24FF0FF305DF8044B704771
:104A1000704701205DF8044B704700BF2DE9F84F47
:104A20000F691369FF1A002F0E4690467AD101F1E3
:104A30001405143202EB830205EB830301E09D426F
:104A400073D253F8041D52F8044DA142F7D064D339
:104A50007168FFF7B9FC8146002872D03569D8F833
:104A60001020C76008F1140E06F1140009F1140AB1
:104A700006F1100C0EEB820200EB85075646002172
:104A80005EF8044B5CF804BFA3B211FA8BF1CB1AA9
:104A9000210CC1EB1B4101EB23419BB243EA0143D3
:104AA000724546F8043B4FEA2141E9D8A2EB0804DD
:104AB000153C08F11508424524F0030606F10406EA
:104AC00038BF0426304424F0030238BF0022874256
:104AD0005244B24416D95646044654F8043B11FADF
:104AE00083F10A1402EB134289B241EA0243A7425E
:104AF00046F8043B4FEA2241EFD87A1E101A20F004
:104B00000302524423B952F8043D013D002BFAD070
:104B1000C9F810504846BDE8F88F3346012746468D
:104B2000984695E7F9DB002792E70021FFF74CFC58
:104B3000814668B101220023C9E904234846BDE843
:104B4000F88F074B07484A464FF4107100F038FAC7
:104B5000034B04484A4640F2322100F031FA00BFCC
:104B6000308200084482000882B08DED000B154BA6
:104B7000019A1340A3F15073002B05DD0020194664
:104B800041EC100B02B070475B42B3F1A07F4FEADB
:104B9000235208DA4FF40023002043FA02F141ECDB
:104BA000100B02B07047143A1E2ADABF4FF00043D0
:104BB00023FA02F201220021104641EC100B02B050
:104BC000704700BF0000F07FF8B5046900F11406DB
:104BD00006EB8404271F54F8045C2846FFF704FD05
:104BE000C0F120030A280B6031DDBE421BD20B3816
:104BF00054F8081C23D0C0F1200C854021FA0CF792
:104C00002F43A4F1080547F07F53AE4243F440130D
:104C100036D2814054F80C0C20FA0CF008430246BE
:104C200043EC102BF8BD0B3808D005FA00F040F02B
:104C30007F53002043F440130246F1E7014645F05C
:104C40007F5343F440130A4643EC102BF8BDC0F1E8
:104C50000B0C25FA0CF1BE4241F07F5338BF54F8DB
:104C6000081C00F1150034BF21FA0CF1002105FAEF
:104C700000F043F4401340EA010243EC102BF8BD6E
:104C800001FA00F00246CBE72DE9F043884683B0F5
:104C9000012157EC106B1546FFF796FB04460028E0
:104CA0004FD0C7F30A59C7F31303B9F1000F01D06E
:104CB00043F48013002E019324D068460096FFF73A
:104CC000B3FC002839D0DDE90013C0F1200203FA5B
:104CD00002F20A43C34062610193002B14BF022217
:104CE0000122A3612261B9F1000F16D0A9F233436A
:104CF0000344C0F13500C8F800302860204603B0F6
:104D0000BDE8F08301A8FFF78FFC019B63610122DE
:104D100020302261B9F1000FE8D104EB8203A0F248
:104D20003240C8F800001869FFF75EFCC0EB421083
:104D30002860204603B0BDE8F083009B6361019BBF
:104D4000CBE7034B0348224640F20A3100F038F922
:104D500030820008448200082DE9F04383B00E46FB
:104D600069460746FFF730FF01A9304655EC104B66
:104D7000FFF72AFF3B693169591ADDE90023D31A8D
:104D800003EB4113002B51EC100B0DDD05EB035928
:104D90004D4602460B462046294601F0CDF941EC2E
:104DA000100B03B0BDE8F083C3EB033301EB0357F3
:104DB0003946EEE7172870B506460CDD0A490B4D5B
:104DC0000020002422462B4601F08CF8013EF9D148
:104DD00041EC100B70BD064B03EBC006D6E9040195
:104DE00041EC100B70BD00BF0000F03F00002440FC
:104DF000187F00080139491101F1010C116902F114
:104E0000140303EB81018B4200EB8C0C16D210B51E
:104E1000A0F1040E53F8044B4EF8044F9942F9D810
:104E20008B1A153B23F0030304331844844504D93B
:104E3000002340F8043B8445FBD810BD844505D9C8
:104E4000002340F8043B8445FBD87047704700BFFF
:104E500003694A11934200F1140009DA00EB83035D
:104E600002E053F8042DCAB98342FAD800207047F3
:104E700011DD11F01F010ED010B450F8224000EBEC
:104E8000820324FA01F202FA01F18C420CD00120D3
:104E90005DF8044B704700EB8203E5E701207047A3
:104EA00053F8042D002AF2D18342F9D800205DF88E
:104EB000044B704738B502FB01F52946FDF7B0F801
:104EC000044618B12A460021FDF758F8204638BD9F
:104ED000002958D030B551F8043C83B0002BA1F123
:104EE0000404B8BFE4180190FFF76AFA284A019851
:104EF000136833B1A3420DD9216804EB010C63455B
:104F00002FD06360146003B0BDE83040FFF75ABA99
:104F1000A34210D81A465B68002BF9D1116802EB46
:104F2000010C644519D02FD36360546003B0BDE811
:104F30003040FFF747BA116802EB010CA44516D0C8
:104F400022D8216804EB010C6345EDD11D685B6834
:104F50002944C4E900135460D5E72368194411605B
:104F6000D1E71D685B682944C4E90013CAE72468D7
:104F700021445418A3421160C5D1D3E90043214410
:104F8000C2E90013BFE770470C230360BBE700BF13
:104F9000B402002038B50C46084D84461146204620
:104FA0001A4600232B606446FCF7D6F8431C00D059
:104FB00038BD2B68002BFBD0236038BDBC0200201D
:104FC00000B50B4C25681446EE681A4685B00346BA
:104FD0000D464CB107490095CDE90114304606490C
:104FE00000F022F8FCF79EFD04490C46F3E700BFF1
:104FF0000C00002078820008888200088482000863
:1050000008B513460022FFF7DBFF00BF0CB400B564
:1050100083B004AB53F8042B019300F07DF803B088
:105020005DF804EB02B070470EB410B583B005AB69
:10503000064C53F8042B01930146206800F06CF8ED
:1050400003B0BDE8104003B0704700BF0C00002063
:1050500010B4034CD4F8E440A4465DF8044B604718
:105060007000002082B049B15AB16BB113780B6067
:105070001278101E18BF012002B0704701A9002A43
:10508000F3D1104602B070476FF00100F4E700BFA3
:105090009368013B002B936011DA10B49469A3422A
:1050A00009DB0A2907D01368581C106019700846DC
:1050B0005DF8044B70475DF8044B00F07DB9136850
:1050C000581C106019700846704700BF9BB1F8B5B6
:1050D000134406460F46541E5D1E01E0AC4208D044
:1050E00014F8011F3A463046FFF7D2FF431CF5D1B2
:1050F000F8BD0020F8BD0020704700BF936810B5D0
:10510000144613B95360184610BD00F053FA00233B
:10511000C4E9013310BD00BF2DE9F04F88469FB0B0
:1051200015461C46814618B18369002B00F0A28009
:10513000924B984500F0A480914B984500F0B180C7
:10514000904B984508BFD9F80C80B8F80C30180778
:1051500040F19D80D8F81030002B00F0988000239B
:105160000B932978884E059420238DF83130302315
:105170008DF832300127002974D02C460B4604E00C
:1051800014F8013F002B00F08F80252BF8D1B4EBF1
:10519000050B40F08C802378002B63D000234FF068
:1051A000FF32CDE90723069309938DF85B301C93FA
:1051B000013404E0069A07FA03F3134306932546E5
:1051C000052214F8011B3046FFF7AAF8831B0028BC
:1051D000F0D1069BD90644BF20228DF85B202978A8
:1051E0001A0744BF2B228DF85B202A2970D1059A1B
:1051F0001168043200290592C0F29B8009916978F8
:1052000001352E2976D0614C03222046FFF788F81D
:1052100038B1069B001B402404FA00F003430693B8
:10522000013515F8011B5A488DF830100622FFF79A
:1052300077F8002800F08380564B002B6DD005AA2C
:105240000092554B424606A94846FDF70FF80390D9
:10525000039B013306D00B9B039A297813440B93CD
:1052600000298AD1B8F80C305B0617D40B981FB010
:10527000BDE8F08FFCF760FD404B98457FF45CAFD4
:10528000D9F80480B8F80C3018073FF563AF4146F1
:10529000484600F00DF900283FF461AF4FF0FF30B1
:1052A000E5E7D9F8088050E7B4EB050BDAD0AA4659
:1052B000C5F1010503E0934536D91AF8011F4246AE
:1052C0004846FFF7E5FE013005EB0A02F3D1C9E7D6
:1052D000A1F13002092A94D8099B15F8011F03EBAC
:1052E000830302EB4303A1F13002092AF5D92E29E9
:1052F000099388D169782A292BD1059BA9781A6846
:1053000007920433002A05F102000593B8BF4FF05D
:10531000FF330546B8BF079375E7059B073323F0B6
:1053200007030833059396E70B9A23785A440B92A8
:1053300032E7494243F00203099106935FE705AA69
:105340000092154B424606A94846FDF7BFFA039066
:105350007EE7A1F130020023092A079305F1010538
:105360003FF651AF15F8011F03EB830302EB430334
:10537000A1F13002092AF5D9079344E7F07E00082D
:10538000D07E0008B07E0008C8820008D0820008E5
:10539000D48200086D220008CD50000810B4054CDE
:1053A0008446134620685DF8044B0A466146FFF7C1
:1053B000B3BE00BF0C000020F8B50D4614460646EB
:1053C00008B1836943B3254B9C422AD0244B9C42AD
:1053D00029D0244B9C4208BFF468A389A269A2602B
:1053E0001A0722D5236903B322686169D31AEDB283
:1053F00099422F4629DD0133A1680139A160511C72
:105400002160157062699A4216D0A389DB0701D525
:105410000A2D11D03846F8BDFCF78EFC0F4B9C428C
:10542000D4D17468D9E7B468D7E72146304600F094
:105430003FF838B92369D7E721463046FEF7D4FE56
:105440000028E7D04FF0FF37E4E721463046FEF76B
:10545000CBFE0028F6D122680123CDE7F07E0008BC
:10546000D07E0008B07E000810B4044C03460A4603
:1054700020685DF8044B1946FFF79EBF0C00002022
:1054800010B4034CD4F8E040A4465DF8044B6047E8
:105490007000002049B1FF2A02D80A70012070472D
:1054A0008A2303604FF0FF3070470846704700BF03
:1054B0003C4B70B51D6806460C460DB1AB69E3B1B7
:1054C000394B9C421FD0394B9C424DD0384B9C42AB
:1054D00008BFEC68B4F90C3018079AB219D52169E5
:1054E00011B312F001002FD00020A060606940428B
:1054F000A06100292ED0002070BD2846FCF71CFCBE
:10550000294B9C42DFD16C68B4F90C3018079AB271
:10551000E5D4D1063ED5520728D4216943F00803CB
:10552000A3819AB20029DCD102F42070B0F5007F8B
:10553000D7D02146304600F0B5F9B4F90C302169D6
:105540009AB212F00100CFD1950758BF6069A060F0
:105550000029D0D1120658BF0846CDD543F04003EC
:10556000A3814FF0FF3070BDAC68B3E7616B51B100
:1055700004F14402914204D03046FFF7A9FCB4F98B
:105580000C300022626321690022C4E9001223F07A
:105590002403C3E7092243F0400332604FF0FF3099
:1055A000A38170BD0C000020F07E0008D07E0008B2
:1055B000B07E00089368002B00F085802DE9F04F45
:1055C000B1F90C300C461907804683B0174698B2E3
:1055D00025D523691BB310F002033D682DD04FF091
:1055E000000ADFF8BCB25646B9465E45334652461D
:1055F00028BF5B464046002E52D0216AA76AB847B2
:10560000002856DDD9F808301B1A8244361AC9F82A
:105610000830002BE9D1002003B0BDE8F08F21460F
:105620004046FFF745FF002840F03681B4F90C30C2
:105630003D6898B210F00203D1D110F0010944D1B5
:105640004E46009746B38205D4F808B040F18380F7
:10565000B3455A4600F2B28010F4906F40F0BF801C
:1056600020680192494600F0ABF9A368019AA3EBC8
:105670000B012368A1601344B24623600026009BFF
:105680009868A0EB0A00D14498600028C3D0B4F910
:105690000C0080B2002ED6D1D5E900960835D1E7AE
:1056A000D5E900A60835A0E721464046FEF79CFD57
:1056B00080B3B4F90C3043F040034FF0FF30A381C6
:1056C00003B0BDE8F08F002070471E46AA469946F9
:1056D00018461D46009756B388B34A46D4E90413CA
:1056E0002068B24228BF3246884205D9A16803EB40
:1056F000010B5A4500F3A680934263DC216AA76A36
:105700002A464046B847B0F1000BD2DDB9EB0B0991
:10571000CAD00120009A9368A3EB0B035D44A6EB6B
:105720000B069360002B3FF476AF002ED4D10AF124
:10573000080353E902569A460833002EF9D0324640
:105740000A212846FEF7ECFD002800F09C8001307D
:10575000A0EB0509C1E720682369984216D8636960
:10576000B34213D86FF00042B24228BF3246216ADA
:1057700092FBF3F2A76A02FB03F340464A46B8479E
:10578000B0F1000A95DDA6EB0A0678E7B345DA46E4
:1057900028BFB2465246494600F012F9A368226873
:1057A000A3EB0A035244A3602260002BEBD12146F5
:1057B0004046FEF719FD0028E5D07AE72068B34699
:1057C00032464EE72946019200F0FAF8019AA368A2
:1057D0009B1AA360236813442360934696E72368CB
:1057E0002169A3EB010B636903EB430A0AEBDA7A45
:1057F0000BF101034FEA6A0A33445345524684BF12
:105800009A46524643052CD511464046FCF708FC03
:1058100000283BD05A4621690190FCF715FBA2896C
:10582000019B22F4906242F08002A28103EB0B0004
:105830002361AAEB0B03C4F814A0A3602060B34655
:1058400032460EE729465A4600F0BAF823685B4410
:10585000236021464046FEF7C7FC00283FF456AFC0
:1058600027E7404600F028F903460028DED12169E9
:105870004046FFF72DFBB4F90C300C2223F08003D7
:10588000C8F8002017E7721C914627E70C22B4F9EC
:105890000C30C8F800200EE74FF0FF30BCE600BF28
:1058A00000FCFF7FF0B58B890C46990797B007D5B0
:1058B00004F147030122C4E90432236017B0F0BDAC
:1058C000B4F90E10002905462DDB6A4600F01CF9DC
:1058D000002827DB019E06F470464FF48067A6F58A
:1058E0000056B6FA86F6394628467609FCF798FB44
:1058F00030B3A3891A4AAA6243F08003C4E90407BB
:10590000A3812060002ED9D0B4F90E10284600F0F3
:1059100011F90028D2D0A38923F0030343F0010337
:10592000A381CBE7A38913F0800F14BF40274FF466
:105930008067394628460026FCF772FB0028D8D13C
:10594000B4F90C309A05B9D423F0030304F14702EB
:1059500043F002030121C4E90421A3812260ADE7E1
:10596000451B000870B50C46B1F90E10002996B021
:1059700016461D4613DB6A4600F0C6F800280EDB0B
:10598000019901F47041A1F50051B1FA81F14FF490
:105990008063490900202960336016B070BDB4F9F6
:1059A0000C3000221B062A6004D5402300203360FF
:1059B00016B070BD4FF480630020336016B070BD28
:1059C00088420DD98B1883420AD900EB020CBAB178
:1059D000624613F801CD02F801CD9942F9D1704722
:1059E0000F2A0ED8034602F1FF3C4AB10CF1010C1C
:1059F000013B8C4411F8012B03F8012F6145F9D1CB
:105A0000704740EA01039B0750D1A2F1100370B523
:105A100001F1200C23F00F0501F1100E00F110042C
:105A2000AC441B095EF8105C44F8105C5EF80C5C3A
:105A300044F80C5C5EF8085C44F8085C5EF8045CB2
:105A400044F8045C0EF1100EE64504F11004E9D1AF
:105A5000013312F00C0F01EB031102F00F0400EB05
:105A6000031327D0043C24F003064FEA940C1E4491
:105A70001C1F8E465EF8045B44F8045FB442F9D103
:105A80000CF1010402F0030203EB840301EB840137
:105A900002F1FF3C4AB10CF1010C013B8C4411F8BE
:105AA000012B03F8012F6145F9D170BD02F1FF3CD4
:105AB00003469BE72246EBE7F8B51446F9B1CAB1B5
:105AC00006460D4600F048F8A04202D32F4638465D
:105AD000F8BD21463046FCF7A3FA07460028F6D069
:105AE00022462946FCF7B0F930462946FFF7F0F97F
:105AF0003846F8BD2746FFF7EBF93846F8BDBDE854
:105B0000F8401146FCF78CBA70B50C46084D0346B8
